{"abi":[{"type":"constructor","inputs":[{"name":"_name","type":"string","internalType":"string"},{"name":"_symbol","type":"string","internalType":"string"},{"name":"_uri","type":"string","internalType":"string"},{"name":"_maxWallet","type":"uint8","internalType":"uint8"},{"name":"_maxSupply","type":"uint256","internalType":"uint256"},{"name":"_price","type":"uint256","internalType":"uint256"},{"name":"_usdcAddress","type":"address","internalType":"address"}],"stateMutability":"nonpayable"},{"type":"function","name":"approve","inputs":[{"name":"to","type":"address","internalType":"address"},{"name":"tokenId","type":"uint256","internalType":"uint256"}],"outputs":[],"stateMutability":"payable"},{"type":"function","name":"balanceOf","inputs":[{"name":"owner","type":"address","internalType":"address"}],"outputs":[{"name":"","type":"uint256","internalType":"uint256"}],"stateMutability":"view"},{"type":"function","name":"explicitOwnershipOf","inputs":[{"name":"tokenId","type":"uint256","internalType":"uint256"}],"outputs":[{"name":"","type":"tuple","internalType":"struct IERC721A.TokenOwnership","components":[{"name":"addr","type":"address","internalType":"address"},{"name":"startTimestamp","type":"uint64","internalType":"uint64"},{"name":"burned","type":"bool","internalType":"bool"},{"name":"extraData","type":"uint24","internalType":"uint24"}]}],"stateMutability":"view"},{"type":"function","name":"explicitOwnershipsOf","inputs":[{"name":"tokenIds","type":"uint256[]","internalType":"uint256[]"}],"outputs":[{"name":"","type":"tuple[]","internalType":"struct IERC721A.TokenOwnership[]","components":[{"name":"addr","type":"address","internalType":"address"},{"name":"startTimestamp","type":"uint64","internalType":"uint64"},{"name":"burned","type":"bool","internalType":"bool"},{"name":"extraData","type":"uint24","internalType":"uint24"}]}],"stateMutability":"view"},{"type":"function","name":"getApproved","inputs":[{"name":"tokenId","type":"uint256","internalType":"uint256"}],"outputs":[{"name":"","type":"address","internalType":"address"}],"stateMutability":"view"},{"type":"function","name":"getCurrentMaxSupply","inputs":[],"outputs":[{"name":"","type":"uint256","internalType":"uint256"}],"stateMutability":"view"},{"type":"function","name":"getCurrentPrice","inputs":[],"outputs":[{"name":"","type":"uint256","internalType":"uint256"}],"stateMutability":"view"},{"type":"function","name":"isApprovedForAll","inputs":[{"name":"owner","type":"address","internalType":"address"},{"name":"operator","type":"address","internalType":"address"}],"outputs":[{"name":"","type":"bool","internalType":"bool"}],"stateMutability":"view"},{"type":"function","name":"mint","inputs":[{"name":"_to","type":"address","internalType":"address"},{"name":"_quantity","type":"uint8","internalType":"uint8"}],"outputs":[],"stateMutability":"nonpayable"},{"type":"function","name":"mintPartnership","inputs":[{"name":"_quantity","type":"uint8","internalType":"uint8"}],"outputs":[],"stateMutability":"nonpayable"},{"type":"function","name":"name","inputs":[],"outputs":[{"name":"","type":"string","internalType":"string"}],"stateMutability":"view"},{"type":"function","name":"owner","inputs":[],"outputs":[{"name":"","type":"address","internalType":"address"}],"stateMutability":"view"},{"type":"function","name":"ownerOf","inputs":[{"name":"tokenId","type":"uint256","internalType":"uint256"}],"outputs":[{"name":"","type":"address","internalType":"address"}],"stateMutability":"view"},{"type":"function","name":"renounceOwnership","inputs":[],"outputs":[],"stateMutability":"nonpayable"},{"type":"function","name":"safeTransferFrom","inputs":[{"name":"from","type":"address","internalType":"address"},{"name":"to","type":"address","internalType":"address"},{"name":"tokenId","type":"uint256","internalType":"uint256"}],"outputs":[],"stateMutability":"payable"},{"type":"function","name":"safeTransferFrom","inputs":[{"name":"from","type":"address","internalType":"address"},{"name":"to","type":"address","internalType":"address"},{"name":"tokenId","type":"uint256","internalType":"uint256"},{"name":"_data","type":"bytes","internalType":"bytes"}],"outputs":[],"stateMutability":"payable"},{"type":"function","name":"setApprovalForAll","inputs":[{"name":"operator","type":"address","internalType":"address"},{"name":"approved","type":"bool","internalType":"bool"}],"outputs":[],"stateMutability":"nonpayable"},{"type":"function","name":"setMaxSupply","inputs":[{"name":"_newMaxSupply","type":"uint256","internalType":"uint256"}],"outputs":[],"stateMutability":"nonpayable"},{"type":"function","name":"setPrice","inputs":[{"name":"_newPrice","type":"uint256","internalType":"uint256"}],"outputs":[],"stateMutability":"nonpayable"},{"type":"function","name":"setUri","inputs":[{"name":"_newUri","type":"string","internalType":"string"}],"outputs":[],"stateMutability":"nonpayable"},{"type":"function","name":"supportsInterface","inputs":[{"name":"interfaceId","type":"bytes4","internalType":"bytes4"}],"outputs":[{"name":"","type":"bool","internalType":"bool"}],"stateMutability":"view"},{"type":"function","name":"symbol","inputs":[],"outputs":[{"name":"","type":"string","internalType":"string"}],"stateMutability":"view"},{"type":"function","name":"tokenURI","inputs":[{"name":"tokenId","type":"uint256","internalType":"uint256"}],"outputs":[{"name":"","type":"string","internalType":"string"}],"stateMutability":"view"},{"type":"function","name":"tokensOfOwner","inputs":[{"name":"owner","type":"address","internalType":"address"}],"outputs":[{"name":"","type":"uint256[]","internalType":"uint256[]"}],"stateMutability":"view"},{"type":"function","name":"tokensOfOwnerIn","inputs":[{"name":"owner","type":"address","internalType":"address"},{"name":"start","type":"uint256","internalType":"uint256"},{"name":"stop","type":"uint256","internalType":"uint256"}],"outputs":[{"name":"","type":"uint256[]","internalType":"uint256[]"}],"stateMutability":"view"},{"type":"function","name":"totalSupply","inputs":[],"outputs":[{"name":"","type":"uint256","internalType":"uint256"}],"stateMutability":"view"},{"type":"function","name":"transferFrom","inputs":[{"name":"from","type":"address","internalType":"address"},{"name":"to","type":"address","internalType":"address"},{"name":"tokenId","type":"uint256","internalType":"uint256"}],"outputs":[],"stateMutability":"payable"},{"type":"function","name":"transferOwnership","inputs":[{"name":"newOwner","type":"address","internalType":"address"}],"outputs":[],"stateMutability":"nonpayable"},{"type":"event","name":"Approval","inputs":[{"name":"owner","type":"address","indexed":true,"internalType":"address"},{"name":"approved","type":"address","indexed":true,"internalType":"address"},{"name":"tokenId","type":"uint256","indexed":true,"internalType":"uint256"}],"anonymous":false},{"type":"event","name":"ApprovalForAll","inputs":[{"name":"owner","type":"address","indexed":true,"internalType":"address"},{"name":"operator","type":"address","indexed":true,"internalType":"address"},{"name":"approved","type":"bool","indexed":false,"internalType":"bool"}],"anonymous":false},{"type":"event","name":"ClubCPG__Mint","inputs":[{"name":"from","type":"address","indexed":true,"internalType":"address"},{"name":"to","type":"address","indexed":true,"internalType":"address"},{"name":"totalPrice","type":"uint256","indexed":true,"internalType":"uint256"},{"name":"quantity","type":"uint8","indexed":false,"internalType":"uint8"},{"name":"currentIndex","type":"uint256","indexed":false,"internalType":"uint256"}],"anonymous":false},{"type":"event","name":"ClubCPG__SetNewMaxSupply","inputs":[{"name":"newMaxSupply","type":"uint256","indexed":true,"internalType":"uint256"}],"anonymous":false},{"type":"event","name":"ClubCPG__SetNewPrice","inputs":[{"name":"newPrice","type":"uint256","indexed":true,"internalType":"uint256"}],"anonymous":false},{"type":"event","name":"ClubCPG__SetNewUri","inputs":[{"name":"newUri","type":"string","indexed":false,"internalType":"string"}],"anonymous":false},{"type":"event","name":"ConsecutiveTransfer","inputs":[{"name":"fromTokenId","type":"uint256","indexed":true,"internalType":"uint256"},{"name":"toTokenId","type":"uint256","indexed":false,"internalType":"uint256"},{"name":"from","type":"address","indexed":true,"internalType":"address"},{"name":"to","type":"address","indexed":true,"internalType":"address"}],"anonymous":false},{"type":"event","name":"OwnershipTransferred","inputs":[{"name":"previousOwner","type":"address","indexed":true,"internalType":"address"},{"name":"newOwner","type":"address","indexed":true,"internalType":"address"}],"anonymous":false},{"type":"event","name":"Transfer","inputs":[{"name":"from","type":"address","indexed":true,"internalType":"address"},{"name":"to","type":"address","indexed":true,"internalType":"address"},{"name":"tokenId","type":"uint256","indexed":true,"internalType":"uint256"}],"anonymous":false},{"type":"error","name":"ApprovalCallerNotOwnerNorApproved","inputs":[]},{"type":"error","name":"ApprovalQueryForNonexistentToken","inputs":[]},{"type":"error","name":"BalanceQueryForZeroAddress","inputs":[]},{"type":"error","name":"ClubCPG__CannotComputeTotalPrice","inputs":[]},{"type":"error","name":"ClubCPG__CannotSetMaxSupplyBelowCurrentNumberOfNftMinted","inputs":[]},{"type":"error","name":"ClubCPG__CannotSetMaxSupplyToSameAmount","inputs":[]},{"type":"error","name":"ClubCPG__CannotSetPriceToSamePrice","inputs":[]},{"type":"error","name":"ClubCPG__CannotSetUriToSameUri","inputs":[]},{"type":"error","name":"ClubCPG__CannotTransferUsdcToContract","inputs":[]},{"type":"error","name":"ClubCPG__CannotTransferUsdcToReceiptAddress","inputs":[]},{"type":"error","name":"ClubCPG__MaxNftMintedReachedForReceiptAddress","inputs":[]},{"type":"error","name":"ClubCPG__MaxNftReachedForReceiptAddress","inputs":[]},{"type":"error","name":"ClubCPG__MaxPartnershipMintReachedOrTooMuchNftsAsked","inputs":[]},{"type":"error","name":"ClubCPG__MaxSupplyReachedOrTooMuchNftsAsked","inputs":[]},{"type":"error","name":"ClubCPG__NotEnoughUSDCAllowed","inputs":[]},{"type":"error","name":"ClubCPG__NotEnoughUSDCInBalance","inputs":[]},{"type":"error","name":"ClubCPG__ShouldBeAValidAddress","inputs":[]},{"type":"error","name":"ClubCPG__ShouldBeAValidQuantity","inputs":[]},{"type":"error","name":"InvalidQueryRange","inputs":[]},{"type":"error","name":"MintERC2309QuantityExceedsLimit","inputs":[]},{"type":"error","name":"MintToZeroAddress","inputs":[]},{"type":"error","name":"MintZeroQuantity","inputs":[]},{"type":"error","name":"OwnableInvalidOwner","inputs":[{"name":"owner","type":"address","internalType":"address"}]},{"type":"error","name":"OwnableUnauthorizedAccount","inputs":[{"name":"account","type":"address","internalType":"address"}]},{"type":"error","name":"OwnerQueryForNonexistentToken","inputs":[]},{"type":"error","name":"OwnershipNotInitializedForExtraData","inputs":[]},{"type":"error","name":"ReentrancyGuardReentrantCall","inputs":[]},{"type":"error","name":"TransferCallerNotOwnerNorApproved","inputs":[]},{"type":"error","name":"TransferFromIncorrectOwner","inputs":[]},{"type":"error","name":"TransferToNonERC721ReceiverImplementer","inputs":[]},{"type":"error","name":"TransferToZeroAddress","inputs":[]},{"type":"error","name":"URIQueryForNonexistentToken","inputs":[]}],"bytecode":{"object":"0x60a06040523480156200001157600080fd5b506040516200267a3803806200267a833981016040819052620000349162000214565b338787600262000045838262000377565b50600362000054828262000377565b506000805550506001600160a01b0381166200008a57604051631e4fbdf760e01b81526000600482015260240160405180910390fd5b6200009581620000dd565b506001600955600c620000a9868262000377565b506001600160a01b0316608052600a91909155600b55600d805460ff191660ff929092169190911790555062000443915050565b600880546001600160a01b038381166001600160a01b0319831681179093556040519116919082907f8be0079c531659141344cd1fd0a4f28419497f9722a3daafe3b4186f6b6457e090600090a35050565b634e487b7160e01b600052604160045260246000fd5b600082601f8301126200015757600080fd5b81516001600160401b03808211156200017457620001746200012f565b604051601f8301601f19908116603f011681019082821181831017156200019f576200019f6200012f565b8160405283815260209250866020858801011115620001bd57600080fd5b600091505b83821015620001e15785820183015181830184015290820190620001c2565b6000602085830101528094505050505092915050565b80516001600160a01b03811681146200020f57600080fd5b919050565b600080600080600080600060e0888a0312156200023057600080fd5b87516001600160401b03808211156200024857600080fd5b620002568b838c0162000145565b985060208a01519150808211156200026d57600080fd5b6200027b8b838c0162000145565b975060408a01519150808211156200029257600080fd5b50620002a18a828b0162000145565b955050606088015160ff81168114620002b957600080fd5b608089015160a08a015191955093509150620002d860c08901620001f7565b905092959891949750929550565b600181811c90821680620002fb57607f821691505b6020821081036200031c57634e487b7160e01b600052602260045260246000fd5b50919050565b601f82111562000372576000816000526020600020601f850160051c810160208610156200034d5750805b601f850160051c820191505b818110156200036e5782815560010162000359565b5050505b505050565b81516001600160401b038111156200039357620003936200012f565b620003ab81620003a48454620002e6565b8462000322565b602080601f831160018114620003e35760008415620003ca5750858301515b600019600386901b1c1916600185901b1785556200036e565b600085815260208120601f198616915b828110156200041457888601518255948401946001909101908401620003f3565b5085821015620004335787850151600019600388901b60f8161c191681555b5050505050600190811b01905550565b6080516122066200047460003960008181610b1a01528181610bc301528181610cca0152610d7801526122066000f3fe6080604052600436106101b75760003560e01c80638462151c116100ec578063a22cb4651161008a578063c87b56dd11610064578063c87b56dd146104c0578063e985e9c5146104e0578063eb91d37e14610529578063f2fde38b1461053e57600080fd5b8063a22cb46514610460578063b88d4fde14610480578063c23dc68f1461049357600080fd5b8063945711b2116100c6578063945711b2146103eb57806395d89b411461040b57806399a2557a146104205780639b642de11461044057600080fd5b80638462151c146103805780638da5cb5b146103ad57806391b7f5ed146103cb57600080fd5b80635bbb2177116101595780636f8b44b0116101335780636f8b44b01461031657806370a0823114610336578063715018a61461035657806383b40da21461036b57600080fd5b80635bbb2177146102a95780636352211e146102d6578063691562a0146102f657600080fd5b8063095ea7b311610195578063095ea7b31461024b57806318160ddd1461026057806323b872dd1461028357806342842e0e1461029657600080fd5b806301ffc9a7146101bc57806306fdde03146101f1578063081812fc14610213575b600080fd5b3480156101c857600080fd5b506101dc6101d7366004611a3c565b61055e565b60405190151581526020015b60405180910390f35b3480156101fd57600080fd5b506102066105b0565b6040516101e89190611aa9565b34801561021f57600080fd5b5061023361022e366004611abc565b610642565b6040516001600160a01b0390911681526020016101e8565b61025e610259366004611af1565b610686565b005b34801561026c57600080fd5b50600154600054035b6040519081526020016101e8565b61025e610291366004611b1b565b610726565b61025e6102a4366004611b1b565b6108cc565b3480156102b557600080fd5b506102c96102c4366004611b57565b6108ec565b6040516101e89190611c09565b3480156102e257600080fd5b506102336102f1366004611abc565b6109b8565b34801561030257600080fd5b5061025e610311366004611c5c565b6109c3565b34801561032257600080fd5b5061025e610331366004611abc565b610e80565b34801561034257600080fd5b50610275610351366004611c8f565b610f00565b34801561036257600080fd5b5061025e610f4f565b34801561037757600080fd5b50600a54610275565b34801561038c57600080fd5b506103a061039b366004611c8f565b610f63565b6040516101e89190611caa565b3480156103b957600080fd5b506008546001600160a01b0316610233565b3480156103d757600080fd5b5061025e6103e6366004611abc565b61106c565b3480156103f757600080fd5b5061025e610406366004611ce2565b6110c9565b34801561041757600080fd5b506102066111bb565b34801561042c57600080fd5b506103a061043b366004611cfd565b6111ca565b34801561044c57600080fd5b5061025e61045b366004611dbc565b611344565b34801561046c57600080fd5b5061025e61047b366004611e13565b611400565b61025e61048e366004611e4a565b61146c565b34801561049f57600080fd5b506104b36104ae366004611abc565b6114b6565b6040516101e89190611ec6565b3480156104cc57600080fd5b506102066104db366004611abc565b61152e565b3480156104ec57600080fd5b506101dc6104fb366004611ed4565b6001600160a01b03918216600090815260076020908152604080832093909416825291909152205460ff1690565b34801561053557600080fd5b50600b54610275565b34801561054a57600080fd5b5061025e610559366004611c8f565b61157e565b60006301ffc9a760e01b6001600160e01b03198316148061058f57506380ac58cd60e01b6001600160e01b03198316145b806105aa5750635b5e139f60e01b6001600160e01b03198316145b92915050565b6060600280546105bf90611efe565b80601f01602080910402602001604051908101604052809291908181526020018280546105eb90611efe565b80156106385780601f1061060d57610100808354040283529160200191610638565b820191906000526020600020905b81548152906001019060200180831161061b57829003601f168201915b5050505050905090565b600061064d826115c1565b61066a576040516333d1c03960e21b815260040160405180910390fd5b506000908152600660205260409020546001600160a01b031690565b6000610691826109b8565b9050336001600160a01b038216146106ca576106ad81336104fb565b6106ca576040516367d9dca160e11b815260040160405180910390fd5b60008281526006602052604080822080546001600160a01b0319166001600160a01b0387811691821790925591518593918516917f8c5be1e5ebec7d5bd14f71427d1e84f3dd0314c0f7b2291e5b200ac8c7c3b92591a4505050565b6000610731826115e8565b9050836001600160a01b0316816001600160a01b0316146107645760405162a1148160e81b815260040160405180910390fd5b60008281526006602052604090208054338082146001600160a01b038816909114176107b15761079486336104fb565b6107b157604051632ce44b5f60e11b815260040160405180910390fd5b6001600160a01b0385166107d857604051633a954ecd60e21b815260040160405180910390fd5b6107e5868686600161164f565b80156107f057600082555b6001600160a01b038681166000908152600560205260408082208054600019019055918716808252919020805460010190554260a01b17600160e11b17600085815260046020526040812091909155600160e11b84169003610882576001840160008181526004602052604081205490036108805760005481146108805760008181526004602052604090208490555b505b83856001600160a01b0316876001600160a01b03167fddf252ad1be2c89b69c2b068fc378daa952ba7f163c4a11628f55a4df523b3ef60405160405180910390a45b505050505050565b6108e78383836040518060200160405280600081525061146c565b505050565b60608160008167ffffffffffffffff81111561090a5761090a611d30565b60405190808252806020026020018201604052801561095c57816020015b6040805160808101825260008082526020808301829052928201819052606082015282526000199092019101816109285790505b50905060005b8281146109af5761098a86868381811061097e5761097e611f38565b905060200201356114b6565b82828151811061099c5761099c611f38565b6020908102919091010152600101610962565b50949350505050565b60006105aa826115e8565b6109cb611687565b6001600160a01b0382166109f257604051635a95766d60e11b815260040160405180910390fd5b61deac196001600160a01b03831601610a1e57604051635a95766d60e11b815260040160405180910390fd5b8060ff16600003610a425760405163bf0104e760e01b815260040160405180910390fd5b600a54600054610a559060ff8416611f64565b1115610a7457604051636d1484c760e01b815260040160405180910390fd5b600d546001600160a01b0383166000908152600e602052604090205460ff91821691610aa1911683611f77565b60ff161115610ac35760405163094e449b60e41b815260040160405180910390fd5b600080610ad5600b548460ff166116b1565b9092509050811515600003610afd5760405163024b5c1360e21b815260040160405180910390fd5b604051636eb1769f60e11b815233600482015230602482015281907f00000000000000000000000000000000000000000000000000000000000000006001600160a01b03169063dd62ed3e90604401602060405180830381865afa158015610b69573d6000803e3d6000fd5b505050506040513d601f19601f82011682018060405250810190610b8d9190611f90565b1015610bac576040516367f4da7760e01b815260040160405180910390fd5b6040516370a0823160e01b815233600482015281907f00000000000000000000000000000000000000000000000000000000000000006001600160a01b0316906370a0823190602401602060405180830381865afa158015610c12573d6000803e3d6000fd5b505050506040513d601f19601f82011682018060405250810190610c369190611f90565b1015610c5557604051630ce8353160e01b815260040160405180910390fd5b6001600160a01b0384166000908152600e602052604081208054859290610c8090849060ff16611f77565b825460ff9182166101009390930a9283029190920219909116179055506040516323b872dd60e01b8152336004820152306024820152604481018290526000906001600160a01b037f000000000000000000000000000000000000000000000000000000000000000016906323b872dd906064016020604051808303816000875af1158015610d13573d6000803e3d6000fd5b505050506040513d601f19601f82011682018060405250810190610d379190611fa9565b90508015610d5857604051632c6e400b60e21b815260040160405180910390fd5b60405163a9059cbb60e01b815260016004820152602481018390526000907f00000000000000000000000000000000000000000000000000000000000000006001600160a01b03169063a9059cbb906044016020604051808303816000875af1158015610dc9573d6000803e3d6000fd5b505050506040513d601f19601f82011682018060405250810190610ded9190611fa9565b90508015610e0e576040516306001ad360e11b815260040160405180910390fd5b610e1b868660ff166116fc565b826001600160a01b038716337f53252ee3279c2392363c0838074d9eac3bfd6f8bc86560c9b25faf98de03da8388610e5260005490565b6040805160ff909316835260208301919091520160405180910390a450505050610e7c6001600955565b5050565b610e88611807565b600054811015610eab576040516313a36cff60e11b815260040160405180910390fd5b600a548103610ecd576040516307b39e1f60e21b815260040160405180910390fd5b600a81905560405181907fe1907e79e796a8fb2f932cc56e08d9194b6bc6468bdc2877e81bfde87855ba8390600090a250565b60006001600160a01b038216610f29576040516323d3ad8160e21b815260040160405180910390fd5b506001600160a01b031660009081526005602052604090205467ffffffffffffffff1690565b610f57611807565b610f616000611834565b565b60606000806000610f7385610f00565b905060008167ffffffffffffffff811115610f9057610f90611d30565b604051908082528060200260200182016040528015610fb9578160200160208202803683370190505b509050610fe660408051608081018252600080825260208201819052918101829052606081019190915290565b60005b83861461106057610ff981611886565b915081604001516110585781516001600160a01b03161561101957815194505b876001600160a01b0316856001600160a01b031603611058578083878060010198508151811061104b5761104b611f38565b6020026020010181815250505b600101610fe9565b50909695505050505050565b611074611807565b600b54810361109657604051635cfa9a7960e11b815260040160405180910390fd5b600b81905560405181907fa0836faf799a35ee9837342465e84299b0f0ac68606126528e07ac3dbf68063d90600090a250565b6110d1611807565b600a546000546110e49060ff8416611f64565b111561110357604051636d1484c760e01b815260040160405180910390fd5b600d5460059061111c908390610100900460ff16611f77565b60ff16111561113e5760405163620e2dad60e11b815260040160405180910390fd5b600d805460ff6101008083048216850182160261ff00199092169190911790915561116d9060009083166116fc565b600080337f53252ee3279c2392363c0838074d9eac3bfd6f8bc86560c9b25faf98de03da838461119c60005490565b6040805160ff909316835260208301919091520160405180910390a450565b6060600380546105bf90611efe565b60608183106111ec57604051631960ccad60e11b815260040160405180910390fd5b6000806111f860005490565b905080841115611206578093505b600061121187610f00565b905084861015611230578585038181101561122a578091505b50611234565b5060005b60008167ffffffffffffffff81111561124f5761124f611d30565b604051908082528060200260200182016040528015611278578160200160208202803683370190505b5090508160000361128e57935061133d92505050565b6000611299886114b6565b9050600081604001516112aa575080515b885b8881141580156112bc5750848714155b15611331576112ca81611886565b925082604001516113295782516001600160a01b0316156112ea57825191505b8a6001600160a01b0316826001600160a01b031603611329578084888060010199508151811061131c5761131c611f38565b6020026020010181815250505b6001016112ac565b50505092835250909150505b9392505050565b61134c611807565b600c60405160200161135e9190611fc6565b6040516020818303038152906040528051906020012081604051602001611385919061203c565b60405160208183030381529060405280519060200120036113b95760405163bb8efbf960e01b815260040160405180910390fd5b600c6113c582826120a0565b507fed5ac4ce213815379382ba3b91d14aba998ce2e5da855f9906831dc1824757e3816040516113f59190611aa9565b60405180910390a150565b3360008181526007602090815260408083206001600160a01b03871680855290835292819020805460ff191686151590811790915590519081529192917f17307eab39ab6107e8899845ad3d59bd9653f200f220920489ca2b5937696c31910160405180910390a35050565b611477848484610726565b6001600160a01b0383163b156114b057611493848484846118c2565b6114b0576040516368d2bf6b60e11b815260040160405180910390fd5b50505050565b604080516080808201835260008083526020808401829052838501829052606080850183905285519384018652828452908301829052938201819052928101839052909150600054831061150a5792915050565b61151383611886565b90508060400151156115255792915050565b61133d836119ae565b6060611539826115c1565b61155657604051630a14c4b560e41b815260040160405180910390fd5b600c6040516020016115689190611fc6565b6040516020818303038152906040529050919050565b611586611807565b6001600160a01b0381166115b557604051631e4fbdf760e01b8152600060048201526024015b60405180910390fd5b6115be81611834565b50565b60008054821080156105aa575050600090815260046020526040902054600160e01b161590565b6000816000548110156116365760008181526004602052604081205490600160e01b82169003611634575b8060000361133d575060001901600081815260046020526040902054611613565b505b604051636f96cda160e11b815260040160405180910390fd5b600d5460ff1661165e84610f00565b6116689083611f64565b11156114b057604051638d9ecaad60e01b815260040160405180910390fd5b6002600954036116aa57604051633ee5aeb560e01b815260040160405180910390fd5b6002600955565b600080836000036116c857506001905060006116f5565b838302838582816116db576116db612160565b04146116ee5760008092509250506116f5565b6001925090505b9250929050565b60008054908290036117215760405163b562e8dd60e01b815260040160405180910390fd5b61172e600084838561164f565b6001600160a01b03831660008181526005602090815260408083208054680100000000000000018802019055848352600490915281206001851460e11b4260a01b178317905582840190839083907fddf252ad1be2c89b69c2b068fc378daa952ba7f163c4a11628f55a4df523b3ef8180a4600183015b8181146117dd57808360007fddf252ad1be2c89b69c2b068fc378daa952ba7f163c4a11628f55a4df523b3ef600080a46001016117a5565b50816000036117fe57604051622e076360e81b815260040160405180910390fd5b60005550505050565b6008546001600160a01b03163314610f615760405163118cdaa760e01b81523360048201526024016115ac565b600880546001600160a01b038381166001600160a01b0319831681179093556040519116919082907f8be0079c531659141344cd1fd0a4f28419497f9722a3daafe3b4186f6b6457e090600090a35050565b6040805160808101825260008082526020820181905291810182905260608101919091526000828152600460205260409020546105aa906119de565b604051630a85bd0160e11b81526000906001600160a01b0385169063150b7a02906118f7903390899088908890600401612176565b6020604051808303816000875af1925050508015611932575060408051601f3d908101601f1916820190925261192f918101906121b3565b60015b611990573d808015611960576040519150601f19603f3d011682016040523d82523d6000602084013e611965565b606091505b508051600003611988576040516368d2bf6b60e11b815260040160405180910390fd5b805181602001fd5b6001600160e01b031916630a85bd0160e11b1490505b949350505050565b6040805160808101825260008082526020820181905291810182905260608101919091526105aa6119de836115e8565b604080516080810182526001600160a01b038316815260a083901c67ffffffffffffffff166020820152600160e01b831615159181019190915260e89190911c606082015290565b6001600160e01b0319811681146115be57600080fd5b600060208284031215611a4e57600080fd5b813561133d81611a26565b60005b83811015611a74578181015183820152602001611a5c565b50506000910152565b60008151808452611a95816020860160208601611a59565b601f01601f19169290920160200192915050565b60208152600061133d6020830184611a7d565b600060208284031215611ace57600080fd5b5035919050565b80356001600160a01b0381168114611aec57600080fd5b919050565b60008060408385031215611b0457600080fd5b611b0d83611ad5565b946020939093013593505050565b600080600060608486031215611b3057600080fd5b611b3984611ad5565b9250611b4760208501611ad5565b9150604084013590509250925092565b60008060208385031215611b6a57600080fd5b823567ffffffffffffffff80821115611b8257600080fd5b818501915085601f830112611b9657600080fd5b813581811115611ba557600080fd5b8660208260051b8501011115611bba57600080fd5b60209290920196919550909350505050565b80516001600160a01b0316825260208082015167ffffffffffffffff169083015260408082015115159083015260609081015162ffffff16910152565b6020808252825182820181905260009190848201906040850190845b8181101561106057611c38838551611bcc565b9284019260809290920191600101611c25565b803560ff81168114611aec57600080fd5b60008060408385031215611c6f57600080fd5b611c7883611ad5565b9150611c8660208401611c4b565b90509250929050565b600060208284031215611ca157600080fd5b61133d82611ad5565b6020808252825182820181905260009190848201906040850190845b8181101561106057835183529284019291840191600101611cc6565b600060208284031215611cf457600080fd5b61133d82611c4b565b600080600060608486031215611d1257600080fd5b611d1b84611ad5565b95602085013595506040909401359392505050565b634e487b7160e01b600052604160045260246000fd5b600067ffffffffffffffff80841115611d6157611d61611d30565b604051601f8501601f19908116603f01168101908282118183101715611d8957611d89611d30565b81604052809350858152868686011115611da257600080fd5b858560208301376000602087830101525050509392505050565b600060208284031215611dce57600080fd5b813567ffffffffffffffff811115611de557600080fd5b8201601f81018413611df657600080fd5b6119a684823560208401611d46565b80151581146115be57600080fd5b60008060408385031215611e2657600080fd5b611e2f83611ad5565b91506020830135611e3f81611e05565b809150509250929050565b60008060008060808587031215611e6057600080fd5b611e6985611ad5565b9350611e7760208601611ad5565b925060408501359150606085013567ffffffffffffffff811115611e9a57600080fd5b8501601f81018713611eab57600080fd5b611eba87823560208401611d46565b91505092959194509250565b608081016105aa8284611bcc565b60008060408385031215611ee757600080fd5b611ef083611ad5565b9150611c8660208401611ad5565b600181811c90821680611f1257607f821691505b602082108103611f3257634e487b7160e01b600052602260045260246000fd5b50919050565b634e487b7160e01b600052603260045260246000fd5b634e487b7160e01b600052601160045260246000fd5b808201808211156105aa576105aa611f4e565b60ff81811683821601908111156105aa576105aa611f4e565b600060208284031215611fa257600080fd5b5051919050565b600060208284031215611fbb57600080fd5b815161133d81611e05565b6000808354611fd481611efe565b60018281168015611fec576001811461200157612030565b60ff1984168752821515830287019450612030565b8760005260208060002060005b858110156120275781548a82015290840190820161200e565b50505082870194505b50929695505050505050565b6000825161204e818460208701611a59565b9190910192915050565b601f8211156108e7576000816000526020600020601f850160051c810160208610156120815750805b601f850160051c820191505b818110156108c45782815560010161208d565b815167ffffffffffffffff8111156120ba576120ba611d30565b6120ce816120c88454611efe565b84612058565b602080601f83116001811461210357600084156120eb5750858301515b600019600386901b1c1916600185901b1785556108c4565b600085815260208120601f198616915b8281101561213257888601518255948401946001909101908401612113565b50858210156121505787850151600019600388901b60f8161c191681555b5050505050600190811b01905550565b634e487b7160e01b600052601260045260246000fd5b6001600160a01b03858116825284166020820152604081018390526080606082018190526000906121a990830184611a7d565b9695505050505050565b6000602082840312156121c557600080fd5b815161133d81611a2656fea2646970667358221220900df5e7554db1a926c701944aba28150feadd20e138f6b1397ae2b3774bd5de64736f6c63430008170033","linkReferences":{}},"methodIdentifiers":{"approve(address,uint256)":"095ea7b3","balanceOf(address)":"70a08231","explicitOwnershipOf(uint256)":"c23dc68f","explicitOwnershipsOf(uint256[])":"5bbb2177","getApproved(uint256)":"081812fc","getCurrentMaxSupply()":"83b40da2","getCurrentPrice()":"eb91d37e","isApprovedForAll(address,address)":"e985e9c5","mint(address,uint8)":"691562a0","mintPartnership(uint8)":"945711b2","name()":"06fdde03","owner()":"8da5cb5b","ownerOf(uint256)":"6352211e","renounceOwnership()":"715018a6","safeTransferFrom(address,address,uint256)":"42842e0e","safeTransferFrom(address,address,uint256,bytes)":"b88d4fde","setApprovalForAll(address,bool)":"a22cb465","setMaxSupply(uint256)":"6f8b44b0","setPrice(uint256)":"91b7f5ed","setUri(string)":"9b642de1","supportsInterface(bytes4)":"01ffc9a7","symbol()":"95d89b41","tokenURI(uint256)":"c87b56dd","tokensOfOwner(address)":"8462151c","tokensOfOwnerIn(address,uint256,uint256)":"99a2557a","totalSupply()":"18160ddd","transferFrom(address,address,uint256)":"23b872dd","transferOwnership(address)":"f2fde38b"},"id":9}