{"abi":[{"type":"constructor","inputs":[{"name":"_name","type":"string","internalType":"string"},{"name":"_symbol","type":"string","internalType":"string"},{"name":"_maxWallet","type":"uint8","internalType":"uint8"}],"stateMutability":"nonpayable"},{"type":"function","name":"approve","inputs":[{"name":"to","type":"address","internalType":"address"},{"name":"tokenId","type":"uint256","internalType":"uint256"}],"outputs":[],"stateMutability":"payable"},{"type":"function","name":"balanceOf","inputs":[{"name":"owner","type":"address","internalType":"address"}],"outputs":[{"name":"","type":"uint256","internalType":"uint256"}],"stateMutability":"view"},{"type":"function","name":"explicitOwnershipOf","inputs":[{"name":"tokenId","type":"uint256","internalType":"uint256"}],"outputs":[{"name":"","type":"tuple","internalType":"struct IERC721A.TokenOwnership","components":[{"name":"addr","type":"address","internalType":"address"},{"name":"startTimestamp","type":"uint64","internalType":"uint64"},{"name":"burned","type":"bool","internalType":"bool"},{"name":"extraData","type":"uint24","internalType":"uint24"}]}],"stateMutability":"view"},{"type":"function","name":"explicitOwnershipsOf","inputs":[{"name":"tokenIds","type":"uint256[]","internalType":"uint256[]"}],"outputs":[{"name":"","type":"tuple[]","internalType":"struct IERC721A.TokenOwnership[]","components":[{"name":"addr","type":"address","internalType":"address"},{"name":"startTimestamp","type":"uint64","internalType":"uint64"},{"name":"burned","type":"bool","internalType":"bool"},{"name":"extraData","type":"uint24","internalType":"uint24"}]}],"stateMutability":"view"},{"type":"function","name":"getApproved","inputs":[{"name":"tokenId","type":"uint256","internalType":"uint256"}],"outputs":[{"name":"","type":"address","internalType":"address"}],"stateMutability":"view"},{"type":"function","name":"isApprovedForAll","inputs":[{"name":"owner","type":"address","internalType":"address"},{"name":"operator","type":"address","internalType":"address"}],"outputs":[{"name":"","type":"bool","internalType":"bool"}],"stateMutability":"view"},{"type":"function","name":"name","inputs":[],"outputs":[{"name":"","type":"string","internalType":"string"}],"stateMutability":"view"},{"type":"function","name":"owner","inputs":[],"outputs":[{"name":"","type":"address","internalType":"address"}],"stateMutability":"view"},{"type":"function","name":"ownerOf","inputs":[{"name":"tokenId","type":"uint256","internalType":"uint256"}],"outputs":[{"name":"","type":"address","internalType":"address"}],"stateMutability":"view"},{"type":"function","name":"renounceOwnership","inputs":[],"outputs":[],"stateMutability":"nonpayable"},{"type":"function","name":"safeTransferFrom","inputs":[{"name":"from","type":"address","internalType":"address"},{"name":"to","type":"address","internalType":"address"},{"name":"tokenId","type":"uint256","internalType":"uint256"}],"outputs":[],"stateMutability":"payable"},{"type":"function","name":"safeTransferFrom","inputs":[{"name":"from","type":"address","internalType":"address"},{"name":"to","type":"address","internalType":"address"},{"name":"tokenId","type":"uint256","internalType":"uint256"},{"name":"_data","type":"bytes","internalType":"bytes"}],"outputs":[],"stateMutability":"payable"},{"type":"function","name":"setApprovalForAll","inputs":[{"name":"operator","type":"address","internalType":"address"},{"name":"approved","type":"bool","internalType":"bool"}],"outputs":[],"stateMutability":"nonpayable"},{"type":"function","name":"supportsInterface","inputs":[{"name":"interfaceId","type":"bytes4","internalType":"bytes4"}],"outputs":[{"name":"","type":"bool","internalType":"bool"}],"stateMutability":"view"},{"type":"function","name":"symbol","inputs":[],"outputs":[{"name":"","type":"string","internalType":"string"}],"stateMutability":"view"},{"type":"function","name":"tokenURI","inputs":[{"name":"tokenId","type":"uint256","internalType":"uint256"}],"outputs":[{"name":"","type":"string","internalType":"string"}],"stateMutability":"view"},{"type":"function","name":"tokensOfOwner","inputs":[{"name":"owner","type":"address","internalType":"address"}],"outputs":[{"name":"","type":"uint256[]","internalType":"uint256[]"}],"stateMutability":"view"},{"type":"function","name":"tokensOfOwnerIn","inputs":[{"name":"owner","type":"address","internalType":"address"},{"name":"start","type":"uint256","internalType":"uint256"},{"name":"stop","type":"uint256","internalType":"uint256"}],"outputs":[{"name":"","type":"uint256[]","internalType":"uint256[]"}],"stateMutability":"view"},{"type":"function","name":"totalSupply","inputs":[],"outputs":[{"name":"","type":"uint256","internalType":"uint256"}],"stateMutability":"view"},{"type":"function","name":"transferFrom","inputs":[{"name":"from","type":"address","internalType":"address"},{"name":"to","type":"address","internalType":"address"},{"name":"tokenId","type":"uint256","internalType":"uint256"}],"outputs":[],"stateMutability":"payable"},{"type":"function","name":"transferOwnership","inputs":[{"name":"newOwner","type":"address","internalType":"address"}],"outputs":[],"stateMutability":"nonpayable"},{"type":"event","name":"Approval","inputs":[{"name":"owner","type":"address","indexed":true,"internalType":"address"},{"name":"approved","type":"address","indexed":true,"internalType":"address"},{"name":"tokenId","type":"uint256","indexed":true,"internalType":"uint256"}],"anonymous":false},{"type":"event","name":"ApprovalForAll","inputs":[{"name":"owner","type":"address","indexed":true,"internalType":"address"},{"name":"operator","type":"address","indexed":true,"internalType":"address"},{"name":"approved","type":"bool","indexed":false,"internalType":"bool"}],"anonymous":false},{"type":"event","name":"ConsecutiveTransfer","inputs":[{"name":"fromTokenId","type":"uint256","indexed":true,"internalType":"uint256"},{"name":"toTokenId","type":"uint256","indexed":false,"internalType":"uint256"},{"name":"from","type":"address","indexed":true,"internalType":"address"},{"name":"to","type":"address","indexed":true,"internalType":"address"}],"anonymous":false},{"type":"event","name":"OwnershipTransferred","inputs":[{"name":"previousOwner","type":"address","indexed":true,"internalType":"address"},{"name":"newOwner","type":"address","indexed":true,"internalType":"address"}],"anonymous":false},{"type":"event","name":"Transfer","inputs":[{"name":"from","type":"address","indexed":true,"internalType":"address"},{"name":"to","type":"address","indexed":true,"internalType":"address"},{"name":"tokenId","type":"uint256","indexed":true,"internalType":"uint256"}],"anonymous":false},{"type":"error","name":"ApprovalCallerNotOwnerNorApproved","inputs":[]},{"type":"error","name":"ApprovalQueryForNonexistentToken","inputs":[]},{"type":"error","name":"BalanceQueryForZeroAddress","inputs":[]},{"type":"error","name":"InvalidQueryRange","inputs":[]},{"type":"error","name":"MintERC2309QuantityExceedsLimit","inputs":[]},{"type":"error","name":"MintToZeroAddress","inputs":[]},{"type":"error","name":"MintZeroQuantity","inputs":[]},{"type":"error","name":"OwnableInvalidOwner","inputs":[{"name":"owner","type":"address","internalType":"address"}]},{"type":"error","name":"OwnableUnauthorizedAccount","inputs":[{"name":"account","type":"address","internalType":"address"}]},{"type":"error","name":"OwnerQueryForNonexistentToken","inputs":[]},{"type":"error","name":"OwnershipNotInitializedForExtraData","inputs":[]},{"type":"error","name":"ReentrancyGuardReentrantCall","inputs":[]},{"type":"error","name":"TransferCallerNotOwnerNorApproved","inputs":[]},{"type":"error","name":"TransferFromIncorrectOwner","inputs":[]},{"type":"error","name":"TransferToNonERC721ReceiverImplementer","inputs":[]},{"type":"error","name":"TransferToZeroAddress","inputs":[]},{"type":"error","name":"URIQueryForNonexistentToken","inputs":[]}],"bytecode":{"object":"0x60806040523480156200001157600080fd5b5060405162001936380380620019368339810160408190526200003491620001d2565b3383836002620000458382620002e8565b506003620000548282620002e8565b506000805550506001600160a01b0381166200008a57604051631e4fbdf760e01b81526000600482015260240160405180910390fd5b6200009581620000b8565b506001600955600a805460ff191660ff9290921691909117905550620003b49050565b600880546001600160a01b038381166001600160a01b0319831681179093556040519116919082907f8be0079c531659141344cd1fd0a4f28419497f9722a3daafe3b4186f6b6457e090600090a35050565b634e487b7160e01b600052604160045260246000fd5b600082601f8301126200013257600080fd5b81516001600160401b03808211156200014f576200014f6200010a565b604051601f8301601f19908116603f011681019082821181831017156200017a576200017a6200010a565b81604052838152602092508660208588010111156200019857600080fd5b600091505b83821015620001bc57858201830151818301840152908201906200019d565b6000602085830101528094505050505092915050565b600080600060608486031215620001e857600080fd5b83516001600160401b03808211156200020057600080fd5b6200020e8783880162000120565b945060208601519150808211156200022557600080fd5b50620002348682870162000120565b925050604084015160ff811681146200024c57600080fd5b809150509250925092565b600181811c908216806200026c57607f821691505b6020821081036200028d57634e487b7160e01b600052602260045260246000fd5b50919050565b601f821115620002e3576000816000526020600020601f850160051c81016020861015620002be5750805b601f850160051c820191505b81811015620002df57828155600101620002ca565b5050505b505050565b81516001600160401b038111156200030457620003046200010a565b6200031c8162000315845462000257565b8462000293565b602080601f8311600181146200035457600084156200033b5750858301515b600019600386901b1c1916600185901b178555620002df565b600085815260208120601f198616915b82811015620003855788860151825594840194600190910190840162000364565b5085821015620003a45787850151600019600388901b60f8161c191681555b5050505050600190811b01905550565b61157280620003c46000396000f3fe60806040526004361061012a5760003560e01c8063715018a6116100ab578063a22cb4651161006f578063a22cb4651461031e578063b88d4fde1461033e578063c23dc68f14610351578063c87b56dd1461037e578063e985e9c51461039e578063f2fde38b146103e757600080fd5b8063715018a6146102895780638462151c1461029e5780638da5cb5b146102cb57806395d89b41146102e957806399a2557a146102fe57600080fd5b806323b872dd116100f257806323b872dd146101f657806342842e0e146102095780635bbb21771461021c5780636352211e1461024957806370a082311461026957600080fd5b806301ffc9a71461012f57806306fdde0314610164578063081812fc14610186578063095ea7b3146101be57806318160ddd146101d3575b600080fd5b34801561013b57600080fd5b5061014f61014a36600461105f565b610407565b60405190151581526020015b60405180910390f35b34801561017057600080fd5b50610179610459565b60405161015b91906110cc565b34801561019257600080fd5b506101a66101a13660046110df565b6104eb565b6040516001600160a01b03909116815260200161015b565b6101d16101cc366004611114565b61052f565b005b3480156101df57600080fd5b50600154600054035b60405190815260200161015b565b6101d161020436600461113e565b6105cf565b6101d161021736600461113e565b610767565b34801561022857600080fd5b5061023c61023736600461117a565b610787565b60405161015b919061122c565b34801561025557600080fd5b506101a66102643660046110df565b610853565b34801561027557600080fd5b506101e861028436600461126e565b61085e565b34801561029557600080fd5b506101d16108ad565b3480156102aa57600080fd5b506102be6102b936600461126e565b6108c1565b60405161015b9190611289565b3480156102d757600080fd5b506008546001600160a01b03166101a6565b3480156102f557600080fd5b506101796109ca565b34801561030a57600080fd5b506102be6103193660046112c1565b6109d9565b34801561032a57600080fd5b506101d16103393660046112f4565b610b53565b6101d161034c366004611346565b610bbf565b34801561035d57600080fd5b5061037161036c3660046110df565b610c09565b60405161015b9190611422565b34801561038a57600080fd5b506101796103993660046110df565b610c81565b3480156103aa57600080fd5b5061014f6103b9366004611430565b6001600160a01b03918216600090815260076020908152604080832093909416825291909152205460ff1690565b3480156103f357600080fd5b506101d161040236600461126e565b610d11565b60006301ffc9a760e01b6001600160e01b03198316148061043857506380ac58cd60e01b6001600160e01b03198316145b806104535750635b5e139f60e01b6001600160e01b03198316145b92915050565b60606002805461046890611463565b80601f016020809104026020016040519081016040528092919081815260200182805461049490611463565b80156104e15780601f106104b6576101008083540402835291602001916104e1565b820191906000526020600020905b8154815290600101906020018083116104c457829003601f168201915b5050505050905090565b60006104f682610d54565b610513576040516333d1c03960e21b815260040160405180910390fd5b506000908152600660205260409020546001600160a01b031690565b600061053a82610853565b9050336001600160a01b038216146105735761055681336103b9565b610573576040516367d9dca160e11b815260040160405180910390fd5b60008281526006602052604080822080546001600160a01b0319166001600160a01b0387811691821790925591518593918516917f8c5be1e5ebec7d5bd14f71427d1e84f3dd0314c0f7b2291e5b200ac8c7c3b92591a4505050565b60006105da82610d7b565b9050836001600160a01b0316816001600160a01b03161461060d5760405162a1148160e81b815260040160405180910390fd5b60008281526006602052604090208054338082146001600160a01b0388169091141761065a5761063d86336103b9565b61065a57604051632ce44b5f60e11b815260040160405180910390fd5b6001600160a01b03851661068157604051633a954ecd60e21b815260040160405180910390fd5b801561068c57600082555b6001600160a01b038681166000908152600560205260408082208054600019019055918716808252919020805460010190554260a01b17600160e11b17600085815260046020526040812091909155600160e11b8416900361071e5760018401600081815260046020526040812054900361071c57600054811461071c5760008181526004602052604090208490555b505b83856001600160a01b0316876001600160a01b03167fddf252ad1be2c89b69c2b068fc378daa952ba7f163c4a11628f55a4df523b3ef60405160405180910390a4505050505050565b61078283838360405180602001604052806000815250610bbf565b505050565b60608160008167ffffffffffffffff8111156107a5576107a5611330565b6040519080825280602002602001820160405280156107f757816020015b6040805160808101825260008082526020808301829052928201819052606082015282526000199092019101816107c35790505b50905060005b82811461084a576108258686838181106108195761081961149d565b90506020020135610c09565b8282815181106108375761083761149d565b60209081029190910101526001016107fd565b50949350505050565b600061045382610d7b565b60006001600160a01b038216610887576040516323d3ad8160e21b815260040160405180910390fd5b506001600160a01b031660009081526005602052604090205467ffffffffffffffff1690565b6108b5610de2565b6108bf6000610e0f565b565b606060008060006108d18561085e565b905060008167ffffffffffffffff8111156108ee576108ee611330565b604051908082528060200260200182016040528015610917578160200160208202803683370190505b50905061094460408051608081018252600080825260208201819052918101829052606081019190915290565b60005b8386146109be5761095781610e61565b915081604001516109b65781516001600160a01b03161561097757815194505b876001600160a01b0316856001600160a01b0316036109b657808387806001019850815181106109a9576109a961149d565b6020026020010181815250505b600101610947565b50909695505050505050565b60606003805461046890611463565b60608183106109fb57604051631960ccad60e11b815260040160405180910390fd5b600080610a0760005490565b905080841115610a15578093505b6000610a208761085e565b905084861015610a3f5785850381811015610a39578091505b50610a43565b5060005b60008167ffffffffffffffff811115610a5e57610a5e611330565b604051908082528060200260200182016040528015610a87578160200160208202803683370190505b50905081600003610a9d579350610b4c92505050565b6000610aa888610c09565b905060008160400151610ab9575080515b885b888114158015610acb5750848714155b15610b4057610ad981610e61565b92508260400151610b385782516001600160a01b031615610af957825191505b8a6001600160a01b0316826001600160a01b031603610b385780848880600101995081518110610b2b57610b2b61149d565b6020026020010181815250505b600101610abb565b50505092835250909150505b9392505050565b3360008181526007602090815260408083206001600160a01b03871680855290835292819020805460ff191686151590811790915590519081529192917f17307eab39ab6107e8899845ad3d59bd9653f200f220920489ca2b5937696c31910160405180910390a35050565b610bca8484846105cf565b6001600160a01b0383163b15610c0357610be684848484610e9d565b610c03576040516368d2bf6b60e11b815260040160405180910390fd5b50505050565b6040805160808082018352600080835260208084018290528385018290526060808501839052855193840186528284529083018290529382018190529281018390529091506000548310610c5d5792915050565b610c6683610e61565b9050806040015115610c785792915050565b610b4c83610f88565b6060610c8c82610d54565b610ca957604051630a14c4b560e41b815260040160405180910390fd5b6000610cc060408051602081019091526000815290565b90508051600003610ce05760405180602001604052806000815250610b4c565b80610cea84610fbd565b604051602001610cfb9291906114b3565b6040516020818303038152906040529392505050565b610d19610de2565b6001600160a01b038116610d4857604051631e4fbdf760e01b8152600060048201526024015b60405180910390fd5b610d5181610e0f565b50565b6000805482108015610453575050600090815260046020526040902054600160e01b161590565b600081600054811015610dc95760008181526004602052604081205490600160e01b82169003610dc7575b80600003610b4c575060001901600081815260046020526040902054610da6565b505b604051636f96cda160e11b815260040160405180910390fd5b6008546001600160a01b031633146108bf5760405163118cdaa760e01b8152336004820152602401610d3f565b600880546001600160a01b038381166001600160a01b0319831681179093556040519116919082907f8be0079c531659141344cd1fd0a4f28419497f9722a3daafe3b4186f6b6457e090600090a35050565b60408051608081018252600080825260208201819052918101829052606081019190915260008281526004602052604090205461045390611001565b604051630a85bd0160e11b81526000906001600160a01b0385169063150b7a0290610ed29033908990889088906004016114e2565b6020604051808303816000875af1925050508015610f0d575060408051601f3d908101601f19168201909252610f0a9181019061151f565b60015b610f6b573d808015610f3b576040519150601f19603f3d011682016040523d82523d6000602084013e610f40565b606091505b508051600003610f63576040516368d2bf6b60e11b815260040160405180910390fd5b805181602001fd5b6001600160e01b031916630a85bd0160e11b149050949350505050565b604080516080810182526000808252602082018190529181018290526060810191909152610453610fb883610d7b565b611001565b606060a06040510180604052602081039150506000815280825b600183039250600a81066030018353600a900480610fd75750819003601f19909101908152919050565b604080516080810182526001600160a01b038316815260a083901c67ffffffffffffffff166020820152600160e01b831615159181019190915260e89190911c606082015290565b6001600160e01b031981168114610d5157600080fd5b60006020828403121561107157600080fd5b8135610b4c81611049565b60005b8381101561109757818101518382015260200161107f565b50506000910152565b600081518084526110b881602086016020860161107c565b601f01601f19169290920160200192915050565b602081526000610b4c60208301846110a0565b6000602082840312156110f157600080fd5b5035919050565b80356001600160a01b038116811461110f57600080fd5b919050565b6000806040838503121561112757600080fd5b611130836110f8565b946020939093013593505050565b60008060006060848603121561115357600080fd5b61115c846110f8565b925061116a602085016110f8565b9150604084013590509250925092565b6000806020838503121561118d57600080fd5b823567ffffffffffffffff808211156111a557600080fd5b818501915085601f8301126111b957600080fd5b8135818111156111c857600080fd5b8660208260051b85010111156111dd57600080fd5b60209290920196919550909350505050565b80516001600160a01b0316825260208082015167ffffffffffffffff169083015260408082015115159083015260609081015162ffffff16910152565b6020808252825182820181905260009190848201906040850190845b818110156109be5761125b8385516111ef565b9284019260809290920191600101611248565b60006020828403121561128057600080fd5b610b4c826110f8565b6020808252825182820181905260009190848201906040850190845b818110156109be578351835292840192918401916001016112a5565b6000806000606084860312156112d657600080fd5b6112df846110f8565b95602085013595506040909401359392505050565b6000806040838503121561130757600080fd5b611310836110f8565b91506020830135801515811461132557600080fd5b809150509250929050565b634e487b7160e01b600052604160045260246000fd5b6000806000806080858703121561135c57600080fd5b611365856110f8565b9350611373602086016110f8565b925060408501359150606085013567ffffffffffffffff8082111561139757600080fd5b818701915087601f8301126113ab57600080fd5b8135818111156113bd576113bd611330565b604051601f8201601f19908116603f011681019083821181831017156113e5576113e5611330565b816040528281528a60208487010111156113fe57600080fd5b82602086016020830137600060208483010152809550505050505092959194509250565b6080810161045382846111ef565b6000806040838503121561144357600080fd5b61144c836110f8565b915061145a602084016110f8565b90509250929050565b600181811c9082168061147757607f821691505b60208210810361149757634e487b7160e01b600052602260045260246000fd5b50919050565b634e487b7160e01b600052603260045260246000fd5b600083516114c581846020880161107c565b8351908301906114d981836020880161107c565b01949350505050565b6001600160a01b0385811682528416602082015260408101839052608060608201819052600090611515908301846110a0565b9695505050505050565b60006020828403121561153157600080fd5b8151610b4c8161104956fea264697066735822122005d6fd6c27770fa1e130d183cd28aeaa0befbfc7a2a970846c56b2c5d207e33064736f6c63430008170033","linkReferences":{}},"methodIdentifiers":{"approve(address,uint256)":"095ea7b3","balanceOf(address)":"70a08231","explicitOwnershipOf(uint256)":"c23dc68f","explicitOwnershipsOf(uint256[])":"5bbb2177","getApproved(uint256)":"081812fc","isApprovedForAll(address,address)":"e985e9c5","name()":"06fdde03","owner()":"8da5cb5b","ownerOf(uint256)":"6352211e","renounceOwnership()":"715018a6","safeTransferFrom(address,address,uint256)":"42842e0e","safeTransferFrom(address,address,uint256,bytes)":"b88d4fde","setApprovalForAll(address,bool)":"a22cb465","supportsInterface(bytes4)":"01ffc9a7","symbol()":"95d89b41","tokenURI(uint256)":"c87b56dd","tokensOfOwner(address)":"8462151c","tokensOfOwnerIn(address,uint256,uint256)":"99a2557a","totalSupply()":"18160ddd","transferFrom(address,address,uint256)":"23b872dd","transferOwnership(address)":"f2fde38b"},"id":7}