{"abi":[{"type":"constructor","inputs":[{"name":"_name","type":"string","internalType":"string"},{"name":"_symbol","type":"string","internalType":"string"},{"name":"_uri","type":"string","internalType":"string"},{"name":"_maxWallet","type":"uint8","internalType":"uint8"},{"name":"_maxSupply","type":"uint256","internalType":"uint256"},{"name":"_price","type":"uint256","internalType":"uint256"},{"name":"_usdcAddress","type":"address","internalType":"address"}],"stateMutability":"nonpayable"},{"type":"function","name":"approve","inputs":[{"name":"to","type":"address","internalType":"address"},{"name":"tokenId","type":"uint256","internalType":"uint256"}],"outputs":[],"stateMutability":"payable"},{"type":"function","name":"balanceOf","inputs":[{"name":"owner","type":"address","internalType":"address"}],"outputs":[{"name":"","type":"uint256","internalType":"uint256"}],"stateMutability":"view"},{"type":"function","name":"explicitOwnershipOf","inputs":[{"name":"tokenId","type":"uint256","internalType":"uint256"}],"outputs":[{"name":"","type":"tuple","internalType":"struct IERC721A.TokenOwnership","components":[{"name":"addr","type":"address","internalType":"address"},{"name":"startTimestamp","type":"uint64","internalType":"uint64"},{"name":"burned","type":"bool","internalType":"bool"},{"name":"extraData","type":"uint24","internalType":"uint24"}]}],"stateMutability":"view"},{"type":"function","name":"explicitOwnershipsOf","inputs":[{"name":"tokenIds","type":"uint256[]","internalType":"uint256[]"}],"outputs":[{"name":"","type":"tuple[]","internalType":"struct IERC721A.TokenOwnership[]","components":[{"name":"addr","type":"address","internalType":"address"},{"name":"startTimestamp","type":"uint64","internalType":"uint64"},{"name":"burned","type":"bool","internalType":"bool"},{"name":"extraData","type":"uint24","internalType":"uint24"}]}],"stateMutability":"view"},{"type":"function","name":"getApproved","inputs":[{"name":"tokenId","type":"uint256","internalType":"uint256"}],"outputs":[{"name":"","type":"address","internalType":"address"}],"stateMutability":"view"},{"type":"function","name":"getCurrentMaxSupply","inputs":[],"outputs":[{"name":"","type":"uint256","internalType":"uint256"}],"stateMutability":"view"},{"type":"function","name":"getCurrentPrice","inputs":[],"outputs":[{"name":"","type":"uint256","internalType":"uint256"}],"stateMutability":"view"},{"type":"function","name":"isApprovedForAll","inputs":[{"name":"owner","type":"address","internalType":"address"},{"name":"operator","type":"address","internalType":"address"}],"outputs":[{"name":"","type":"bool","internalType":"bool"}],"stateMutability":"view"},{"type":"function","name":"mint","inputs":[{"name":"_to","type":"address","internalType":"address"},{"name":"_quantity","type":"uint8","internalType":"uint8"}],"outputs":[],"stateMutability":"nonpayable"},{"type":"function","name":"mintPartnership","inputs":[{"name":"_quantity","type":"uint8","internalType":"uint8"}],"outputs":[],"stateMutability":"nonpayable"},{"type":"function","name":"name","inputs":[],"outputs":[{"name":"","type":"string","internalType":"string"}],"stateMutability":"view"},{"type":"function","name":"owner","inputs":[],"outputs":[{"name":"","type":"address","internalType":"address"}],"stateMutability":"view"},{"type":"function","name":"ownerOf","inputs":[{"name":"tokenId","type":"uint256","internalType":"uint256"}],"outputs":[{"name":"","type":"address","internalType":"address"}],"stateMutability":"view"},{"type":"function","name":"renounceOwnership","inputs":[],"outputs":[],"stateMutability":"nonpayable"},{"type":"function","name":"s_addressToNumberOfTokenReceivedFromMint","inputs":[{"name":"","type":"address","internalType":"address"}],"outputs":[{"name":"","type":"uint8","internalType":"uint8"}],"stateMutability":"view"},{"type":"function","name":"safeTransferFrom","inputs":[{"name":"from","type":"address","internalType":"address"},{"name":"to","type":"address","internalType":"address"},{"name":"tokenId","type":"uint256","internalType":"uint256"}],"outputs":[],"stateMutability":"payable"},{"type":"function","name":"safeTransferFrom","inputs":[{"name":"from","type":"address","internalType":"address"},{"name":"to","type":"address","internalType":"address"},{"name":"tokenId","type":"uint256","internalType":"uint256"},{"name":"_data","type":"bytes","internalType":"bytes"}],"outputs":[],"stateMutability":"payable"},{"type":"function","name":"setApprovalForAll","inputs":[{"name":"operator","type":"address","internalType":"address"},{"name":"approved","type":"bool","internalType":"bool"}],"outputs":[],"stateMutability":"nonpayable"},{"type":"function","name":"setMaxSupply","inputs":[{"name":"_newMaxSupply","type":"uint256","internalType":"uint256"}],"outputs":[],"stateMutability":"nonpayable"},{"type":"function","name":"setPrice","inputs":[{"name":"_newPrice","type":"uint256","internalType":"uint256"}],"outputs":[],"stateMutability":"nonpayable"},{"type":"function","name":"setUri","inputs":[{"name":"_newUri","type":"string","internalType":"string"}],"outputs":[],"stateMutability":"nonpayable"},{"type":"function","name":"supportsInterface","inputs":[{"name":"interfaceId","type":"bytes4","internalType":"bytes4"}],"outputs":[{"name":"","type":"bool","internalType":"bool"}],"stateMutability":"view"},{"type":"function","name":"symbol","inputs":[],"outputs":[{"name":"","type":"string","internalType":"string"}],"stateMutability":"view"},{"type":"function","name":"tokenURI","inputs":[{"name":"tokenId","type":"uint256","internalType":"uint256"}],"outputs":[{"name":"","type":"string","internalType":"string"}],"stateMutability":"view"},{"type":"function","name":"tokensOfOwner","inputs":[{"name":"owner","type":"address","internalType":"address"}],"outputs":[{"name":"","type":"uint256[]","internalType":"uint256[]"}],"stateMutability":"view"},{"type":"function","name":"tokensOfOwnerIn","inputs":[{"name":"owner","type":"address","internalType":"address"},{"name":"start","type":"uint256","internalType":"uint256"},{"name":"stop","type":"uint256","internalType":"uint256"}],"outputs":[{"name":"","type":"uint256[]","internalType":"uint256[]"}],"stateMutability":"view"},{"type":"function","name":"totalSupply","inputs":[],"outputs":[{"name":"","type":"uint256","internalType":"uint256"}],"stateMutability":"view"},{"type":"function","name":"transferFrom","inputs":[{"name":"from","type":"address","internalType":"address"},{"name":"to","type":"address","internalType":"address"},{"name":"tokenId","type":"uint256","internalType":"uint256"}],"outputs":[],"stateMutability":"payable"},{"type":"function","name":"transferOwnership","inputs":[{"name":"newOwner","type":"address","internalType":"address"}],"outputs":[],"stateMutability":"nonpayable"},{"type":"event","name":"Approval","inputs":[{"name":"owner","type":"address","indexed":true,"internalType":"address"},{"name":"approved","type":"address","indexed":true,"internalType":"address"},{"name":"tokenId","type":"uint256","indexed":true,"internalType":"uint256"}],"anonymous":false},{"type":"event","name":"ApprovalForAll","inputs":[{"name":"owner","type":"address","indexed":true,"internalType":"address"},{"name":"operator","type":"address","indexed":true,"internalType":"address"},{"name":"approved","type":"bool","indexed":false,"internalType":"bool"}],"anonymous":false},{"type":"event","name":"ClubCPG__Mint","inputs":[{"name":"from","type":"address","indexed":true,"internalType":"address"},{"name":"to","type":"address","indexed":true,"internalType":"address"},{"name":"totalPrice","type":"uint256","indexed":true,"internalType":"uint256"},{"name":"quantity","type":"uint8","indexed":false,"internalType":"uint8"},{"name":"currentIndex","type":"uint256","indexed":false,"internalType":"uint256"}],"anonymous":false},{"type":"event","name":"ClubCPG__SetNewMaxSupply","inputs":[{"name":"newMaxSupply","type":"uint256","indexed":true,"internalType":"uint256"}],"anonymous":false},{"type":"event","name":"ClubCPG__SetNewPrice","inputs":[{"name":"newPrice","type":"uint256","indexed":true,"internalType":"uint256"}],"anonymous":false},{"type":"event","name":"ClubCPG__SetNewUri","inputs":[{"name":"newUri","type":"string","indexed":false,"internalType":"string"}],"anonymous":false},{"type":"event","name":"ConsecutiveTransfer","inputs":[{"name":"fromTokenId","type":"uint256","indexed":true,"internalType":"uint256"},{"name":"toTokenId","type":"uint256","indexed":false,"internalType":"uint256"},{"name":"from","type":"address","indexed":true,"internalType":"address"},{"name":"to","type":"address","indexed":true,"internalType":"address"}],"anonymous":false},{"type":"event","name":"OwnershipTransferred","inputs":[{"name":"previousOwner","type":"address","indexed":true,"internalType":"address"},{"name":"newOwner","type":"address","indexed":true,"internalType":"address"}],"anonymous":false},{"type":"event","name":"Transfer","inputs":[{"name":"from","type":"address","indexed":true,"internalType":"address"},{"name":"to","type":"address","indexed":true,"internalType":"address"},{"name":"tokenId","type":"uint256","indexed":true,"internalType":"uint256"}],"anonymous":false},{"type":"error","name":"ApprovalCallerNotOwnerNorApproved","inputs":[]},{"type":"error","name":"ApprovalQueryForNonexistentToken","inputs":[]},{"type":"error","name":"BalanceQueryForZeroAddress","inputs":[]},{"type":"error","name":"ClubCPG__CannotComputeTotalPrice","inputs":[]},{"type":"error","name":"ClubCPG__CannotSetMaxSupplyBelowCurrentNumberOfNftMinted","inputs":[]},{"type":"error","name":"ClubCPG__CannotSetMaxSupplyToSameAmount","inputs":[]},{"type":"error","name":"ClubCPG__CannotSetPriceToSamePrice","inputs":[]},{"type":"error","name":"ClubCPG__CannotSetUriToSameUri","inputs":[]},{"type":"error","name":"ClubCPG__CannotTransferUsdcToContract","inputs":[]},{"type":"error","name":"ClubCPG__CannotTransferUsdcToReceiptAddress","inputs":[]},{"type":"error","name":"ClubCPG__MaxNftMintedReachedForReceiptAddress","inputs":[]},{"type":"error","name":"ClubCPG__MaxNftReachedForReceiptAddress","inputs":[]},{"type":"error","name":"ClubCPG__MaxPartnershipMintReachedOrTooMuchNftsAsked","inputs":[]},{"type":"error","name":"ClubCPG__MaxSupplyReachedOrTooMuchNftsAsked","inputs":[]},{"type":"error","name":"ClubCPG__NotEnoughUSDCAllowed","inputs":[]},{"type":"error","name":"ClubCPG__NotEnoughUSDCInBalance","inputs":[]},{"type":"error","name":"ClubCPG__ShouldBeAValidAddress","inputs":[]},{"type":"error","name":"ClubCPG__ShouldBeAValidQuantity","inputs":[]},{"type":"error","name":"InvalidQueryRange","inputs":[]},{"type":"error","name":"MintERC2309QuantityExceedsLimit","inputs":[]},{"type":"error","name":"MintToZeroAddress","inputs":[]},{"type":"error","name":"MintZeroQuantity","inputs":[]},{"type":"error","name":"OwnableInvalidOwner","inputs":[{"name":"owner","type":"address","internalType":"address"}]},{"type":"error","name":"OwnableUnauthorizedAccount","inputs":[{"name":"account","type":"address","internalType":"address"}]},{"type":"error","name":"OwnerQueryForNonexistentToken","inputs":[]},{"type":"error","name":"OwnershipNotInitializedForExtraData","inputs":[]},{"type":"error","name":"ReentrancyGuardReentrantCall","inputs":[]},{"type":"error","name":"TransferCallerNotOwnerNorApproved","inputs":[]},{"type":"error","name":"TransferFromIncorrectOwner","inputs":[]},{"type":"error","name":"TransferToNonERC721ReceiverImplementer","inputs":[]},{"type":"error","name":"TransferToZeroAddress","inputs":[]},{"type":"error","name":"URIQueryForNonexistentToken","inputs":[]}],"bytecode":{"object":"0x60a06040523480156200001157600080fd5b506040516200272338038062002723833981016040819052620000349162000214565b338787600262000045838262000377565b50600362000054828262000377565b506000805550506001600160a01b0381166200008a57604051631e4fbdf760e01b81526000600482015260240160405180910390fd5b6200009581620000dd565b506001600955600c620000a9868262000377565b506001600160a01b0316608052600a91909155600b55600d805460ff191660ff929092169190911790555062000443915050565b600880546001600160a01b038381166001600160a01b0319831681179093556040519116919082907f8be0079c531659141344cd1fd0a4f28419497f9722a3daafe3b4186f6b6457e090600090a35050565b634e487b7160e01b600052604160045260246000fd5b600082601f8301126200015757600080fd5b81516001600160401b03808211156200017457620001746200012f565b604051601f8301601f19908116603f011681019082821181831017156200019f576200019f6200012f565b8160405283815260209250866020858801011115620001bd57600080fd5b600091505b83821015620001e15785820183015181830184015290820190620001c2565b6000602085830101528094505050505092915050565b80516001600160a01b03811681146200020f57600080fd5b919050565b600080600080600080600060e0888a0312156200023057600080fd5b87516001600160401b03808211156200024857600080fd5b620002568b838c0162000145565b985060208a01519150808211156200026d57600080fd5b6200027b8b838c0162000145565b975060408a01519150808211156200029257600080fd5b50620002a18a828b0162000145565b955050606088015160ff81168114620002b957600080fd5b608089015160a08a015191955093509150620002d860c08901620001f7565b905092959891949750929550565b600181811c90821680620002fb57607f821691505b6020821081036200031c57634e487b7160e01b600052602260045260246000fd5b50919050565b601f82111562000372576000816000526020600020601f850160051c810160208610156200034d5750805b601f850160051c820191505b818110156200036e5782815560010162000359565b5050505b505050565b81516001600160401b038111156200039357620003936200012f565b620003ab81620003a48454620002e6565b8462000322565b602080601f831160018114620003e35760008415620003ca5750858301515b600019600386901b1c1916600185901b1785556200036e565b600085815260208120601f198616915b828110156200041457888601518255948401946001909101908401620003f3565b5085821015620004335787850151600019600388901b60f8161c191681555b5050505050600190811b01905550565b6080516122af6200047460003960008181610b6701528181610c1001528181610d170152610dd701526122af6000f3fe6080604052600436106101c25760003560e01c806383b40da2116100f75780639b642de111610095578063c87b56dd11610064578063c87b56dd1461050d578063e985e9c51461052d578063eb91d37e14610576578063f2fde38b1461058b57600080fd5b80639b642de11461048d578063a22cb465146104ad578063b88d4fde146104cd578063c23dc68f146104e057600080fd5b806391b7f5ed116100d157806391b7f5ed14610418578063945711b21461043857806395d89b411461045857806399a2557a1461046d57600080fd5b806383b40da2146103b85780638462151c146103cd5780638da5cb5b146103fa57600080fd5b80635bbb2177116101645780636f8b44b01161013e5780636f8b44b01461032157806370a082311461034157806370c0c67914610361578063715018a6146103a357600080fd5b80635bbb2177146102b45780636352211e146102e1578063691562a01461030157600080fd5b8063095ea7b3116101a0578063095ea7b31461025657806318160ddd1461026b57806323b872dd1461028e57806342842e0e146102a157600080fd5b806301ffc9a7146101c757806306fdde03146101fc578063081812fc1461021e575b600080fd5b3480156101d357600080fd5b506101e76101e2366004611ae5565b6105ab565b60405190151581526020015b60405180910390f35b34801561020857600080fd5b506102116105fd565b6040516101f39190611b52565b34801561022a57600080fd5b5061023e610239366004611b65565b61068f565b6040516001600160a01b0390911681526020016101f3565b610269610264366004611b9a565b6106d3565b005b34801561027757600080fd5b50600154600054035b6040519081526020016101f3565b61026961029c366004611bc4565b610773565b6102696102af366004611bc4565b610919565b3480156102c057600080fd5b506102d46102cf366004611c00565b610939565b6040516101f39190611cb2565b3480156102ed57600080fd5b5061023e6102fc366004611b65565b610a05565b34801561030d57600080fd5b5061026961031c366004611d05565b610a10565b34801561032d57600080fd5b5061026961033c366004611b65565b610ede565b34801561034d57600080fd5b5061028061035c366004611d38565b610f5e565b34801561036d57600080fd5b5061039161037c366004611d38565b600e6020526000908152604090205460ff1681565b60405160ff90911681526020016101f3565b3480156103af57600080fd5b50610269610fad565b3480156103c457600080fd5b50600a54610280565b3480156103d957600080fd5b506103ed6103e8366004611d38565b610fc1565b6040516101f39190611d53565b34801561040657600080fd5b506008546001600160a01b031661023e565b34801561042457600080fd5b50610269610433366004611b65565b6110ca565b34801561044457600080fd5b50610269610453366004611d8b565b611127565b34801561046457600080fd5b50610211611240565b34801561047957600080fd5b506103ed610488366004611da6565b61124f565b34801561049957600080fd5b506102696104a8366004611e65565b6113c9565b3480156104b957600080fd5b506102696104c8366004611ebc565b611485565b6102696104db366004611ef3565b6114f1565b3480156104ec57600080fd5b506105006104fb366004611b65565b61153b565b6040516101f39190611f6f565b34801561051957600080fd5b50610211610528366004611b65565b6115b3565b34801561053957600080fd5b506101e7610548366004611f7d565b6001600160a01b03918216600090815260076020908152604080832093909416825291909152205460ff1690565b34801561058257600080fd5b50600b54610280565b34801561059757600080fd5b506102696105a6366004611d38565b611603565b60006301ffc9a760e01b6001600160e01b0319831614806105dc57506380ac58cd60e01b6001600160e01b03198316145b806105f75750635b5e139f60e01b6001600160e01b03198316145b92915050565b60606002805461060c90611fa7565b80601f016020809104026020016040519081016040528092919081815260200182805461063890611fa7565b80156106855780601f1061065a57610100808354040283529160200191610685565b820191906000526020600020905b81548152906001019060200180831161066857829003601f168201915b5050505050905090565b600061069a82611646565b6106b7576040516333d1c03960e21b815260040160405180910390fd5b506000908152600660205260409020546001600160a01b031690565b60006106de82610a05565b9050336001600160a01b03821614610717576106fa8133610548565b610717576040516367d9dca160e11b815260040160405180910390fd5b60008281526006602052604080822080546001600160a01b0319166001600160a01b0387811691821790925591518593918516917f8c5be1e5ebec7d5bd14f71427d1e84f3dd0314c0f7b2291e5b200ac8c7c3b92591a4505050565b600061077e8261166d565b9050836001600160a01b0316816001600160a01b0316146107b15760405162a1148160e81b815260040160405180910390fd5b60008281526006602052604090208054338082146001600160a01b038816909114176107fe576107e18633610548565b6107fe57604051632ce44b5f60e11b815260040160405180910390fd5b6001600160a01b03851661082557604051633a954ecd60e21b815260040160405180910390fd5b61083286868660016116d4565b801561083d57600082555b6001600160a01b038681166000908152600560205260408082208054600019019055918716808252919020805460010190554260a01b17600160e11b17600085815260046020526040812091909155600160e11b841690036108cf576001840160008181526004602052604081205490036108cd5760005481146108cd5760008181526004602052604090208490555b505b83856001600160a01b0316876001600160a01b03167fddf252ad1be2c89b69c2b068fc378daa952ba7f163c4a11628f55a4df523b3ef60405160405180910390a45b505050505050565b610934838383604051806020016040528060008152506114f1565b505050565b60608160008167ffffffffffffffff81111561095757610957611dd9565b6040519080825280602002602001820160405280156109a957816020015b6040805160808101825260008082526020808301829052928201819052606082015282526000199092019101816109755790505b50905060005b8281146109fc576109d78686838181106109cb576109cb611fe1565b9050602002013561153b565b8282815181106109e9576109e9611fe1565b60209081029190910101526001016109af565b50949350505050565b60006105f78261166d565b610a18611730565b6001600160a01b038216610a3f57604051635a95766d60e11b815260040160405180910390fd5b61deac196001600160a01b03831601610a6b57604051635a95766d60e11b815260040160405180910390fd5b8060ff16600003610a8f5760405163bf0104e760e01b815260040160405180910390fd5b600a54600054610aa29060ff841661200d565b1115610ac157604051636d1484c760e01b815260040160405180910390fd5b600d546001600160a01b0383166000908152600e602052604090205460ff91821691610aee911683612020565b60ff161115610b105760405163094e449b60e41b815260040160405180910390fd5b600080610b22600b548460ff1661175a565b9092509050811515600003610b4a5760405163024b5c1360e21b815260040160405180910390fd5b604051636eb1769f60e11b815233600482015230602482015281907f00000000000000000000000000000000000000000000000000000000000000006001600160a01b03169063dd62ed3e90604401602060405180830381865afa158015610bb6573d6000803e3d6000fd5b505050506040513d601f19601f82011682018060405250810190610bda9190612039565b1015610bf9576040516367f4da7760e01b815260040160405180910390fd5b6040516370a0823160e01b815233600482015281907f00000000000000000000000000000000000000000000000000000000000000006001600160a01b0316906370a0823190602401602060405180830381865afa158015610c5f573d6000803e3d6000fd5b505050506040513d601f19601f82011682018060405250810190610c839190612039565b1015610ca257604051630ce8353160e01b815260040160405180910390fd5b6001600160a01b0384166000908152600e602052604081208054859290610ccd90849060ff16612020565b825460ff9182166101009390930a9283029190920219909116179055506040516323b872dd60e01b8152336004820152306024820152604481018290526000906001600160a01b037f000000000000000000000000000000000000000000000000000000000000000016906323b872dd906064016020604051808303816000875af1158015610d60573d6000803e3d6000fd5b505050506040513d601f19601f82011682018060405250810190610d849190612052565b905080610da457604051632c6e400b60e21b815260040160405180910390fd5b60405163a9059cbb60e01b8152737d535f5b19594c8366f0e39cef0142133408ba636004820152602481018390526000907f00000000000000000000000000000000000000000000000000000000000000006001600160a01b03169063a9059cbb906044016020604051808303816000875af1158015610e28573d6000803e3d6000fd5b505050506040513d601f19601f82011682018060405250810190610e4c9190612052565b905080610e6c576040516306001ad360e11b815260040160405180910390fd5b610e79868660ff166117a5565b826001600160a01b038716337f53252ee3279c2392363c0838074d9eac3bfd6f8bc86560c9b25faf98de03da8388610eb060005490565b6040805160ff909316835260208301919091520160405180910390a450505050610eda6001600955565b5050565b610ee66118b0565b600054811015610f09576040516313a36cff60e11b815260040160405180910390fd5b600a548103610f2b576040516307b39e1f60e21b815260040160405180910390fd5b600a81905560405181907fe1907e79e796a8fb2f932cc56e08d9194b6bc6468bdc2877e81bfde87855ba8390600090a250565b60006001600160a01b038216610f87576040516323d3ad8160e21b815260040160405180910390fd5b506001600160a01b031660009081526005602052604090205467ffffffffffffffff1690565b610fb56118b0565b610fbf60006118dd565b565b60606000806000610fd185610f5e565b905060008167ffffffffffffffff811115610fee57610fee611dd9565b604051908082528060200260200182016040528015611017578160200160208202803683370190505b50905061104460408051608081018252600080825260208201819052918101829052606081019190915290565b60005b8386146110be576110578161192f565b915081604001516110b65781516001600160a01b03161561107757815194505b876001600160a01b0316856001600160a01b0316036110b657808387806001019850815181106110a9576110a9611fe1565b6020026020010181815250505b600101611047565b50909695505050505050565b6110d26118b0565b600b5481036110f457604051635cfa9a7960e11b815260040160405180910390fd5b600b81905560405181907fa0836faf799a35ee9837342465e84299b0f0ac68606126528e07ac3dbf68063d90600090a250565b61112f6118b0565b600a546000546111429060ff841661200d565b111561116157604051636d1484c760e01b815260040160405180910390fd5b600d5460059061117a908390610100900460ff16612020565b60ff16111561119c5760405163620e2dad60e11b815260040160405180910390fd5b600d805460ff6101008083048216850182160261ff0019909216919091179091556111de90737d535f5b19594c8366f0e39cef0142133408ba639083166117a5565b6000737d535f5b19594c8366f0e39cef0142133408ba63337f53252ee3279c2392363c0838074d9eac3bfd6f8bc86560c9b25faf98de03da838461122160005490565b6040805160ff909316835260208301919091520160405180910390a450565b60606003805461060c90611fa7565b606081831061127157604051631960ccad60e11b815260040160405180910390fd5b60008061127d60005490565b90508084111561128b578093505b600061129687610f5e565b9050848610156112b557858503818110156112af578091505b506112b9565b5060005b60008167ffffffffffffffff8111156112d4576112d4611dd9565b6040519080825280602002602001820160405280156112fd578160200160208202803683370190505b509050816000036113135793506113c292505050565b600061131e8861153b565b90506000816040015161132f575080515b885b8881141580156113415750848714155b156113b65761134f8161192f565b925082604001516113ae5782516001600160a01b03161561136f57825191505b8a6001600160a01b0316826001600160a01b0316036113ae57808488806001019950815181106113a1576113a1611fe1565b6020026020010181815250505b600101611331565b50505092835250909150505b9392505050565b6113d16118b0565b600c6040516020016113e3919061206f565b604051602081830303815290604052805190602001208160405160200161140a91906120e5565b604051602081830303815290604052805190602001200361143e5760405163bb8efbf960e01b815260040160405180910390fd5b600c61144a8282612149565b507fed5ac4ce213815379382ba3b91d14aba998ce2e5da855f9906831dc1824757e38160405161147a9190611b52565b60405180910390a150565b3360008181526007602090815260408083206001600160a01b03871680855290835292819020805460ff191686151590811790915590519081529192917f17307eab39ab6107e8899845ad3d59bd9653f200f220920489ca2b5937696c31910160405180910390a35050565b6114fc848484610773565b6001600160a01b0383163b15611535576115188484848461196b565b611535576040516368d2bf6b60e11b815260040160405180910390fd5b50505050565b604080516080808201835260008083526020808401829052838501829052606080850183905285519384018652828452908301829052938201819052928101839052909150600054831061158f5792915050565b6115988361192f565b90508060400151156115aa5792915050565b6113c283611a57565b60606115be82611646565b6115db57604051630a14c4b560e41b815260040160405180910390fd5b600c6040516020016115ed919061206f565b6040516020818303038152906040529050919050565b61160b6118b0565b6001600160a01b03811661163a57604051631e4fbdf760e01b8152600060048201526024015b60405180910390fd5b611643816118dd565b50565b60008054821080156105f7575050600090815260046020526040902054600160e01b161590565b6000816000548110156116bb5760008181526004602052604081205490600160e01b821690036116b9575b806000036113c2575060001901600081815260046020526040902054611698565b505b604051636f96cda160e11b815260040160405180910390fd5b6001600160a01b038316737d535f5b19594c8366f0e39cef0142133408ba631461153557600d5460ff1661170784610f5e565b611711908361200d565b111561153557604051638d9ecaad60e01b815260040160405180910390fd5b60026009540361175357604051633ee5aeb560e01b815260040160405180910390fd5b6002600955565b60008083600003611771575060019050600061179e565b8383028385828161178457611784612209565b041461179757600080925092505061179e565b6001925090505b9250929050565b60008054908290036117ca5760405163b562e8dd60e01b815260040160405180910390fd5b6117d760008483856116d4565b6001600160a01b03831660008181526005602090815260408083208054680100000000000000018802019055848352600490915281206001851460e11b4260a01b178317905582840190839083907fddf252ad1be2c89b69c2b068fc378daa952ba7f163c4a11628f55a4df523b3ef8180a4600183015b81811461188657808360007fddf252ad1be2c89b69c2b068fc378daa952ba7f163c4a11628f55a4df523b3ef600080a460010161184e565b50816000036118a757604051622e076360e81b815260040160405180910390fd5b60005550505050565b6008546001600160a01b03163314610fbf5760405163118cdaa760e01b8152336004820152602401611631565b600880546001600160a01b038381166001600160a01b0319831681179093556040519116919082907f8be0079c531659141344cd1fd0a4f28419497f9722a3daafe3b4186f6b6457e090600090a35050565b6040805160808101825260008082526020820181905291810182905260608101919091526000828152600460205260409020546105f790611a87565b604051630a85bd0160e11b81526000906001600160a01b0385169063150b7a02906119a090339089908890889060040161221f565b6020604051808303816000875af19250505080156119db575060408051601f3d908101601f191682019092526119d89181019061225c565b60015b611a39573d808015611a09576040519150601f19603f3d011682016040523d82523d6000602084013e611a0e565b606091505b508051600003611a31576040516368d2bf6b60e11b815260040160405180910390fd5b805181602001fd5b6001600160e01b031916630a85bd0160e11b1490505b949350505050565b6040805160808101825260008082526020820181905291810182905260608101919091526105f7611a878361166d565b604080516080810182526001600160a01b038316815260a083901c67ffffffffffffffff166020820152600160e01b831615159181019190915260e89190911c606082015290565b6001600160e01b03198116811461164357600080fd5b600060208284031215611af757600080fd5b81356113c281611acf565b60005b83811015611b1d578181015183820152602001611b05565b50506000910152565b60008151808452611b3e816020860160208601611b02565b601f01601f19169290920160200192915050565b6020815260006113c26020830184611b26565b600060208284031215611b7757600080fd5b5035919050565b80356001600160a01b0381168114611b9557600080fd5b919050565b60008060408385031215611bad57600080fd5b611bb683611b7e565b946020939093013593505050565b600080600060608486031215611bd957600080fd5b611be284611b7e565b9250611bf060208501611b7e565b9150604084013590509250925092565b60008060208385031215611c1357600080fd5b823567ffffffffffffffff80821115611c2b57600080fd5b818501915085601f830112611c3f57600080fd5b813581811115611c4e57600080fd5b8660208260051b8501011115611c6357600080fd5b60209290920196919550909350505050565b80516001600160a01b0316825260208082015167ffffffffffffffff169083015260408082015115159083015260609081015162ffffff16910152565b6020808252825182820181905260009190848201906040850190845b818110156110be57611ce1838551611c75565b9284019260809290920191600101611cce565b803560ff81168114611b9557600080fd5b60008060408385031215611d1857600080fd5b611d2183611b7e565b9150611d2f60208401611cf4565b90509250929050565b600060208284031215611d4a57600080fd5b6113c282611b7e565b6020808252825182820181905260009190848201906040850190845b818110156110be57835183529284019291840191600101611d6f565b600060208284031215611d9d57600080fd5b6113c282611cf4565b600080600060608486031215611dbb57600080fd5b611dc484611b7e565b95602085013595506040909401359392505050565b634e487b7160e01b600052604160045260246000fd5b600067ffffffffffffffff80841115611e0a57611e0a611dd9565b604051601f8501601f19908116603f01168101908282118183101715611e3257611e32611dd9565b81604052809350858152868686011115611e4b57600080fd5b858560208301376000602087830101525050509392505050565b600060208284031215611e7757600080fd5b813567ffffffffffffffff811115611e8e57600080fd5b8201601f81018413611e9f57600080fd5b611a4f84823560208401611def565b801515811461164357600080fd5b60008060408385031215611ecf57600080fd5b611ed883611b7e565b91506020830135611ee881611eae565b809150509250929050565b60008060008060808587031215611f0957600080fd5b611f1285611b7e565b9350611f2060208601611b7e565b925060408501359150606085013567ffffffffffffffff811115611f4357600080fd5b8501601f81018713611f5457600080fd5b611f6387823560208401611def565b91505092959194509250565b608081016105f78284611c75565b60008060408385031215611f9057600080fd5b611f9983611b7e565b9150611d2f60208401611b7e565b600181811c90821680611fbb57607f821691505b602082108103611fdb57634e487b7160e01b600052602260045260246000fd5b50919050565b634e487b7160e01b600052603260045260246000fd5b634e487b7160e01b600052601160045260246000fd5b808201808211156105f7576105f7611ff7565b60ff81811683821601908111156105f7576105f7611ff7565b60006020828403121561204b57600080fd5b5051919050565b60006020828403121561206457600080fd5b81516113c281611eae565b600080835461207d81611fa7565b6001828116801561209557600181146120aa576120d9565b60ff19841687528215158302870194506120d9565b8760005260208060002060005b858110156120d05781548a8201529084019082016120b7565b50505082870194505b50929695505050505050565b600082516120f7818460208701611b02565b9190910192915050565b601f821115610934576000816000526020600020601f850160051c8101602086101561212a5750805b601f850160051c820191505b8181101561091157828155600101612136565b815167ffffffffffffffff81111561216357612163611dd9565b612177816121718454611fa7565b84612101565b602080601f8311600181146121ac57600084156121945750858301515b600019600386901b1c1916600185901b178555610911565b600085815260208120601f198616915b828110156121db578886015182559484019460019091019084016121bc565b50858210156121f95787850151600019600388901b60f8161c191681555b5050505050600190811b01905550565b634e487b7160e01b600052601260045260246000fd5b6001600160a01b038581168252841660208201526040810183905260806060820181905260009061225290830184611b26565b9695505050505050565b60006020828403121561226e57600080fd5b81516113c281611acf56fea2646970667358221220a1c176bc0d1ee685b2d95cf05b606ec5f0f0249ad6234bcfd6a2f374f33bb00864736f6c63430008170033","linkReferences":{}},"methodIdentifiers":{"approve(address,uint256)":"095ea7b3","balanceOf(address)":"70a08231","explicitOwnershipOf(uint256)":"c23dc68f","explicitOwnershipsOf(uint256[])":"5bbb2177","getApproved(uint256)":"081812fc","getCurrentMaxSupply()":"83b40da2","getCurrentPrice()":"eb91d37e","isApprovedForAll(address,address)":"e985e9c5","mint(address,uint8)":"691562a0","mintPartnership(uint8)":"945711b2","name()":"06fdde03","owner()":"8da5cb5b","ownerOf(uint256)":"6352211e","renounceOwnership()":"715018a6","s_addressToNumberOfTokenReceivedFromMint(address)":"70c0c679","safeTransferFrom(address,address,uint256)":"42842e0e","safeTransferFrom(address,address,uint256,bytes)":"b88d4fde","setApprovalForAll(address,bool)":"a22cb465","setMaxSupply(uint256)":"6f8b44b0","setPrice(uint256)":"91b7f5ed","setUri(string)":"9b642de1","supportsInterface(bytes4)":"01ffc9a7","symbol()":"95d89b41","tokenURI(uint256)":"c87b56dd","tokensOfOwner(address)":"8462151c","tokensOfOwnerIn(address,uint256,uint256)":"99a2557a","totalSupply()":"18160ddd","transferFrom(address,address,uint256)":"23b872dd","transferOwnership(address)":"f2fde38b"},"id":31}